S00D0000536F6E61722E7372656314
S11300000C942A000C9498020C94C8020C94470097
S11300100C9447000C9447000C9447000C94470040
S11300200C9447000C9447000C9447000C94470030
S11300300C9447000C9447000C9447000C94470020
S11300400C9447000C9447000C9447000C94470010
S11300500C94470011241FBECFE5D8E0DEBFCDBF0E
S113006010E0A0E6B0E0E8E4F7E002C005900D92ED
S1130070A237B107D9F720E0A2E7B0E001C01D9292
S1130080A837B207E1F70E94F8020C94A2030C947B
S11300900000672B09F09FC0009711F4D8980895C9
S11300A08130910511F4D99808958230910511F4A5
S11300B0DA9808958330910511F4DB98089584301B
S11300C0910511F4DC9808958530910511F4DD98BB
S11300D008958630910511F4DE98089587309105CE
S11300E011F4DF9808958A30910511F4C0980895A9
S11300F08B30910511F4C19808958C30910511F459
S1130100C29808958D30910511F4C39808958E30E6
S1130110910511F4C49808958F30910511F4C59890
S113012008958031910511F4C6980895813191059F
S113013011F4C79808958431910511F4A89808958D
S11301408531910511F4A99808958631910511F42A
S1130150AA9808958731910511F4AB9808958831D0
S1130160910511F4AC9808958931910511F4AD9875
S113017008958A31910511F4AE9808958B31910553
S113018011F4AF9808958E31910511F49098089563
S11301908F31910511F4919808958032910511F4ED
S11301A0929808958132910511F4939808958232BA
S11301B0910511F4949808958332910511F495985A
S11301C008958432910511F496980895859709F05D
S11301D09FC097980895009711F4D89A0895813094
S11301E0910511F4D99A08958230910511F4DA9A9F
S11301F008958330910511F4DB9A089584309105B4
S113020011F4DC9A08958530910511F4DD9A08956E
S11302108630910511F4DE9A08958730910511F422
S1130220DF9A08958A30910511F4C09A08958B30AD
S1130230910511F4C19A08958C30910511F4C29A74
S113024008958D30910511F4C39A08958E30910567
S113025011F4C49A08958F30910511F4C59A089544
S11302608031910511F4C69A08958131910511F4F4
S1130270C79A08958431910511F4A89A0895853197
S1130280910511F4A99A08958631910511F4AA9A59
S113029008958731910511F4AB9A08958831910539
S11302A011F4AC9A08958931910511F4AD9A089529
S11302B08A31910511F4AE9A08958B31910511F4A8
S11302C0AF9A08958E31910511F4909A08958F3163
S11302D0910511F4919A08958032910511F4929A3E
S11302E008958132910511F4939A0895823291050B
S11302F011F4949A08958332910511F4959A08950E
S11303008432910511F4969A0895859709F4979A81
S11303100895CF93C82F80FF07C061E070E084E0A8
S113032090E00E94490006C060E070E084E090E044
S11303300E944900C1FF07C061E070E085E090E0E1
S11303400E94490006C060E070E085E090E00E94F1
S11303504900C2FF07C061E070E086E090E00E94BF
S1130360490006C060E070E086E090E00E94490029
S1130370C3FF07C061E070E087E090E00E9449009D
S113038006C060E070E087E090E00E944900CF91F1
S11303900895CF93C82F60E070E08AE190E00E9456
S11303A049008C2F0E94890161E070E08BE190E0AC
S11303B00E94490089EF90E00197F1F700C0000026
S11303C060E070E08BE190E00E94490089EF90E0EA
S11303D00197F1F700C00000CF91089580E00E94DA
S11303E0C90181E00E94C9010895CF93C62F8130CD
S11303F059F480E8860F82958F700E94C9018C2F72
S11304008F700E94C9010CC0823051F480EC860FB9
S113041082958F700E94C9018C2F8F700E94C90130
S1130420CF91089580E00E94890187E893E10197C4
S1130430F1F700C0000083E00E94C90181EE94E05E
S11304400197F1F700C0000083E00E94C9018DEB21
S11304509AE00197F1F700C0000083E00E94C9010F
S113046082E00E94C90182E00E94C90188E00E94E2
S1130470C90180E00E94C9018CE00E94C90180E0AA
S11304800E94C90186E00E94C9010895CF93C82F34
S113049061E070E08AE190E00E9449008C2F82952F
S11304A08F700E94890161E070E08BE190E00E940E
S11304B0490089EF90E00197F1F700C0000060E087
S11304C070E08BE190E00E94490089EF90E0019791
S11304D0F1F700C000008C2F8F700E94890161E049
S11304E070E08BE190E00E94490089EF90E0019771
S11304F0F1F700C0000060E070E08BE190E00E9442
S1130500490089EF90E00197F1F700C00000CF9116
S11305100895CF93DF93EC018881882331F02196ED
S11305200E94460289918111FBCFDF91CF910895FA
S11305301F920F920FB60F9211248F939F93809165
S1130540740090917500019769F41EBC8CB59DB53B
S113055090937700809376001DBC1CBC10927500AC
S1130560109274008091740090917500892B49F465
S11305708EB581608EBD81E090E09093750080938C
S113058074009F918F910F900FBE0F901F9018953C
S11305901F920F920FB60F9211248F939F93809105
S11305A0720090917300019769F41EBC8CB59DB5DF
S11305B090937700809376001DBC1CBC109273004E
S11305C0109272008091720090917300892B49F40B
S11305D08EB581608EBD81E090E09093730080932E
S11305E072009F918F910F900FBE0F901F901895DE
S11305F0CF93DF93CDB7DEB760970FB6F894DEBF25
S11306000FBECDBF8FEF84BB8ABB8BEF81BB83ED65
S113061090E30197F1F700C000000E9412028BB72B
S113062080648BBF85B7816085BF1FBC78940AE363
S113063010E0909A95E09A95F1F790988091760061
S113064090917700B8010E944503CB014AE0BE01B6
S11306506F5F7F4F0E946D030E94EE0160E081E0B6
S11306600E94F50180E690E00E94890260E082E049
S11306700E94F501CE0101960E94890287EA91E663
S11306800197F1F700C00000D4CF97FB072E16F4B2
S1130690009407D077FD09D00E94590307FC05D0C8
S11306A03EF4909581959F4F0895709561957F4F85
S11306B00895AA1BBB1B51E107C0AA1FBB1FA617A5
S11306C0B70710F0A61BB70B881F991F5A95A9F7F7
S11306D080959095BC01CD010895BB274A3031F433
S11306E0992322F4BDE2909581959F4F0C94790350
S11306F0BB27FB015527AA27880F991FAA1FA417F8
S113070010F0A41B83955051B9F7A05DAA3308F0EB
S1130710A95DA193009779F7B111B1931192CB011F
S11307200C949203DC01FC01672F71917723E1F7AC
S1130730329704C07C916D9370836291AE17BF07AA
S10B0740C8F30895F894FFCFFB
S113074844697374616E63652056616C75653A20FB
S105075800009B
S9030000FC
