S00F00006D79536F6E61722E737265632C
S11300000C942A000C9408010C9438010C944700B9
S11300100C9447000C9447000C9447000C94470040
S11300200C9447000C9447000C9447000C94470030
S11300300C9447000C945C000C9447000C9447000B
S11300400C9447000C9447000C9447000C94470010
S11300500C94470011241FBECFE5D8E0DEBFCDBF0E
S113006010E0A0E6B0E0ECEFF5E002C005900D92E0
S1130070A437B107D9F721E0A4E7B0E001C01D928D
S1130080A030B207E1F70E9493010C94FC020C9497
S113009000002FEF3FEF30937F0020937E003093DA
S11300A07D0020937C0090BD89B91BB886E880BD93
S11300B088E98AB9789408951F920F920FB60F9227
S11300C011242F933F934F938F939F93EF93FF9319
S11300D04CB180917E0090917F008F37910531F46F
S11300E080917C0090917D00892B69F020917E00A5
S11300F030917F0080917C0090917D002F5F3F4F75
S113010028173907A1F480917C0090917D00019615
S113011090937D0080937C0080917C0090917D0081
S11301208038910521F410927D0010927C0080911A
S11301307E0090917F008F37910529F410927F0003
S113014010927E0009C080917E0090917F000196FC
S113015090937F0080937E00E0917E00F0917F0079
S1130160E058FF4F408380917C0090917D00019680
S113017021F410927D0010927C00FF91EF919F91E9
S11301808F914F913F912F910F900FBE0F901F9021
S1130190189580917C0090917D00019699F1E091F1
S11301A07C00F0917D00E058FF4F808140917C00FD
S11301B050917D0020917E0030917F0042175307BB
S11301C059F42FEF3FEF30937F0020937E0030935C
S11301D07D0020937C00089520917C0030917D0067
S11301E02F5F3F4F30937D0020937C0020917C0053
S11301F030917D002038310531F410927D00109249
S11302007C00089580E008955D9BFECF8CB908952D
S11302101F920F920FB60F9211248F939F93809188
S1130220780090917900019769F41EBC8CB59DB556
S113023090937B0080937A001DBC1CBC10927900C3
S1130240109278008091780090917900892B49F47C
S11302508EB581608EBD81E090E0909379008093AB
S113026078009F918F910F900FBE0F901F9018955B
S11302701F920F920FB60F9211248F939F93809128
S1130280740090917500019769F41EBC8CB59DB5FE
S113029090937700809376001DBC1CBC109275006F
S11302A0109274008091740090917500892B49F428
S11302B08EB581608EBD81E090E09093750080934F
S11302C074009F918F910F900FBE0F901F901895FF
S11302D088BB9698959A8FEC97E00197F1F700C048
S11302E0000082B3807C82BB18BA089588BB969ABA
S11302F0959A8FEC97E00197F1F700C0000082B364
S1130300807C82BB18BA0895CF93DF93EC01888177
S1130310882331F021960E94760189918111FBCFC7
S1130320DF91CF910895CF93DF93CDB7DEB7629776
S11303300FB6F894DEBF0FBECDBF8FEF8ABB87BB6D
S113034083EF81BB1BBA83ED90E30197F1F700C003
S1130350000080EC8BBF85E085BF1FBC8CE090E083
S11303600E94490081E00E946801E3EDF0E33197C7
S1130370F1F700C0000088E30E94680183ED90E378
S11303800197F1F700C000008FE00E946801E3EDDF
S1130390F0E33197F1F700C0000078941A8A198AC3
S11303A0412C512C212C312CC12CD12C0F2EFAE3B1
S11303B0AF2EB12CF02DD99AF5E0FA95F1F7D99832
S11303C080917A0090917B00B5010E949F028B017D
S11303D04B01DA9A85E08A95F1F7DA9880917600F4
S11303E090917700B5010E949F027B013B0180E65A
S11303F090E00E9484014AE0BE016F5F7F4FC60116
S11304000E94C702CE0101960E94840180E790E019
S11304100E94840180EC0E94680186E690E00E94BC
S113042084014AE0BE016F5F7F4FC8010E94C7028A
S1130430CE0101960E9484018DE690E00E94840121
S113044080E80E946801E3ECF9E03197F1F700C01D
S11304500000025011090E301105D0F489899A89DF
S1130460892BB1F488E090E0D89AE3EFF1E031977A
S1130470F1F700C00000D898E7E8F3E13197F1F70D
S113048000C000000197009779F7F1E0F98B1A8A10
S113049080E18816910404F19FEF491A590AE9E0B2
S11304A04E165104CCF089899A89019709F03FC00E
S11304B088E090E0D89AE9EFF0E03197F1F700C0D6
S11304C00000D898E7E8F3E13197F1F700C00000A5
S11304D00197009779F727C0F3E0EF1AF1088CE051
S11304E0E816F10460F42114310449F49FEFC91AA9
S11304F0D90A81E30E94040122242394312CE0E1EF
S11305006E16710414F0212C312C0E94C90088232A
S113051019F0F1E0CF1AD10887EA91E60197F1F7D3
S113052000C0000048CF198A1A8A412C512C93E04C
S1130530E91AF108ECE0EE16F104A8F2E0CF97FB1B
S1130540072E16F4009407D077FD09D00E94B30259
S113055007FC05D03EF4909581959F4F08957095C2
S113056061957F4F0895AA1BBB1B51E107C0AA1FC9
S1130570BB1FA617B70710F0A61BB70B881F991F40
S11305805A95A9F780959095BC01CD010895BB2794
S11305904A3031F4992322F4BDE2909581959F4F1E
S11305A00C94D302BB27FB015527AA27880F991F58
S11305B0AA1FA41710F0A41B83955051B9F7A05D8E
S11305C0AA3308F0A95DA193009779F7B111B1930B
S11305D01192CB010C94EC02DC01FC01672F7191A8
S11305E07723E1F7329704C07C916D937083629115
S10F05F0AE17BF07C8F30895F894FFCFBE
S11305FC7669733D200044495354413D00636D209A
S107060C2020200086
S9030000FC
